:020000040800F2
:100000007007002035270008CD250008CF250008FF
:10001000D1250008D3250008D525000800000000E0
:10002000000000000000000000000000D7250008CC
:10003000D925000800000000DB250008DD250008A8
:100040006D27000871270008752700087927000828
:100050007D270008812700088527000889270008D8
:100060008D27000891270008952700089927000888
:100070009D270008A1270008A5270008A927000838
:10008000AD270008B1270008B5270008E5250008BE
:10009000EF250008F9250008B9270008BD2700084A
:1000A000C1270008C5270008C9270008CD27000878
:1000B000D1270008D5270008D9270008DD27000828
:1000C000E1270008E5270008E9270008ED270008D8
:1000D000F1270008F5270008F9270008FD27000888
:1000E0000128000805280008092800080D28000834
:1000F0001128000815280008192800081D280008E4
:100100002128000825280008292800082D28000893
:100110003128000835280008392800083D28000843
:100120004128000845280008492800084D280008F3
:1001300051280008552800085928000803260008FF
:100140000D260008172600085D2800086128000811
:1001500065280008692800086D2800087128000833
:1001600075280008792800087D28000881280008E3
:1001700085280008892800088D2800080000000054
:10018000912800089528000810B5040094F846004E
:1001900000F070FC002801D1002000E0012010BD1B
:1001A0000100DFED9E2AB4EE620AF1EE10FA06DAE3
:1001B0009FED9B3AB4EE430AF1EE10FA01D5002010
:1001C0003EE0F4EE620AF1EE10FA04DAF4EE430ACD
:1001D000F1EE10FA01D5002032E0DFED923AB4EEF4
:1001E000631AF1EE10FA04DAB5EE401AF1EE10FAE5
:1001F00001D5002024E0DFED8C3AF4EE631AF1EE35
:1002000010FA04DAF5EE401AF1EE10FA01D50020EA
:1002100016E0B4EE622AF1EE10FA04DAB4EE432AE4
:10022000F1EE10FA01D500200AE081ED030AC1EDDC
:10023000040A81ED051AC1ED061A81ED072A012095
:10024000704738B52DED068B04000D00B0EE408AE6
:10025000F0EE608AB0EE419AF0EE619AB0EE42AAFA
:10026000257120782072B0EE4A2AF0EE691AB0EEBD
:10027000491AF0EE680AB0EE480A2000FFF790FF36
:10028000002801D1002000E00120BDEC068B32BD2A
:10029000017102780272704738B52DED028B0400AF
:1002A0000D009FED5F8ADFEDB28A1020B0EE681A74
:1002B000F0EE480A94ED010A00F000FCA8600E2060
:1002C000B0EE681AF0EE480A94ED020A00F0F6FB70
:1002D000E8600A209FEDB81ADFEDB80A94ED030A32
:1002E00000F0ECFB286108209FEDB51ADFEDB30AA2
:1002F00094ED040A00F0E2FB68611020B0EE681A89
:10030000F0EE480A94ED050A00F0D8FBA861A86851
:100310002870A868000A6870E868A870E868000A91
:1003200010F03F00296950EA8110E87028698008C0
:10033000287168696871A869A871A869000AE871DC
:10034000BDEC028B31BD000038B52DED028B0400F1
:100350000D002878697850EA0120A978090411F481
:1003600070210843A860A878C0B20009C0B2E9783B
:1003700050EA0110297950EA0130E8606879A979DA
:1003800050EA01202861E87910F001006861E879FD
:10039000C0B24008C0B2A8619FED218ADFED748A27
:1003A0001421F0EE680AB0EE480AA86800F09BFB42
:1003B00084ED000A1421F0EE680AB0EE480AE868FD
:1003C00000F091FB84ED010A1021F0EE680AB0EE16
:1003D000480A286900F087FB84ED020A68692073E7
:1003E000207B00280AD10721DFED760ABBEE040A44
:1003F000A86900F078FB84ED040A0CE0207B01285A
:1004000009D10721DFED6F0ABBEE040AA86900F0ED
:100410006AFB84ED040ABDEC028B31BD0100204271
:10042000000020C201C07F4401004C421300DBB237
:100430000A2B06D143880B7043889BB21B0A4B7072
:1004400007E01300DBB2092B03D103780B70002304
:100450004B7070470A784B7852EA032202808A7800
:100460008270CA78C2700A794B7952EA032282807C
:100470008A79CB7952EA0322C28070470A780270E7
:1004800070470A78012A02D10122028025E00A7809
:10049000022A02D1022202801FE00A78042A02D135
:1004A0000422028019E00A78082A02D10822028078
:1004B00013E00A78102A02D1102202800DE00A7897
:1004C000202A02D12022028007E00A78402A02D1A5
:1004D0004022028001E000220280704738B504000B
:1004E0000D002079042805D1291D14F10800FFF71B
:1004F000D3FE0CE020790A2802D02079092806D101
:10050000227915F13C0114F13400FFF78FFF31BD62
:1005100038B504000D002079042806D115F120011A
:1005200014F12000FFF710FF19E02079182806D1F8
:1005300015F13E0114F13A00FFF78CFF0FE020792E
:10054000172806D115F1460114F14200FFF799FF73
:1005500005E015F1500114F14400FFF78FFF31BDA4
:1005600001000879097850EA411080B27047000014
:1005700000002042F8B504000D001600257084F834
:10058000466002212000FFF783FEDFF8DC74201DA7
:10059000FFF7E6FF38800020B8702000FFF7F4FD79
:1005A00094F84610380000F0B3FA002801D100207A
:1005B00000E00120F2BD000000C07F440000000008
:1005C00000004C420000484338B52DED048B040078
:1005D000B0EE408AF0EE608AB0EE419A9FEDAC2A10
:1005E000F0EE491AB0EE681ADFEDA90AB0EE480A3B
:1005F00004212000FFF725FE002801D1002015E08E
:10060000DFF86454201DFFF7ABFF28800820A87096
:1006100029002000FFF762FF94F84610280000F040
:1006200077FA002801D1002000E00120BDEC048B06
:1006300032BD000038B52DED028B0400B0EE408ACB
:10064000F0EE608A9FED922AF0EE681A9FED901A04
:10065000F0EE480A9FED8E0A04212000FFF7F1FD1D
:10066000002801D1002015E0DFF8FC53201DFFF722
:1006700077FF28800820A87029002000FFF72EFFB0
:1006800094F84610280000F043FA002801D1002019
:1006900000E00120BDEC028B32BD000038B52DED2D
:1006A000028B0400B0EE408AB0EE482ADFED781AE3
:1006B0009FED771ADFED760A9FED750A0421200081
:1006C000FFF7BFFD002801D1002015E0DFF89853A7
:1006D000201DFFF745FF28800820A8702900200072
:1006E000FFF7FCFE94F84610280000F011FA0028ED
:1006F00001D1002000E00120BDEC028B32BD0000E2
:1007000038B52DED028B0400B0EE408A9FED602AD3
:10071000F0EE481A9FED5E1ADFED5D0A9FED5C0A70
:1007200004212000FFF78DFD002801D1002015E0F5
:10073000DFF83453201DFFF713FF28800820A8702E
:1007400029002000FFF7CAFE94F84610280000F0A8
:10075000DFF9002801D1002000E00120BDEC028B70
:1007600032BD000038B504009FED492ADFED481A7C
:100770009FED471ADFED460A9FED450A0421200050
:10078000FFF75FFD002801D1002015E0DFF8D85207
:10079000201DFFF7E5FE28800820A8702900200012
:1007A000FFF79CFE94F84610280000F0B1F90028ED
:1007B00001D1002000E0012032BD000038B52DED50
:1007C000048B0400B0EE408AF0EE608AB0EE419AED
:1007D000F0EE619AB0EE682AF0EE691AB0EE491AAE
:1007E000DFED2B0AB0EE480A04212000FFF729FDB7
:1007F000002801D1002014E09B4D201DFFF7B0FE22
:1008000028800820A87029002000FFF767FE94F8D0
:100810004610280000F07CF9002801D1002000E0FB
:100820000120BDEC048B32BD38B52DED048B0400E6
:10083000B0EE408AF0EE608AB0EE419AB0EE682ADF
:10084000F0EE491A9FED121AF0EE480A9FED100AD9
:1008500004212000FFF7F5FC002801D1002014E05E
:10086000814D201DFFF77CFE28800820A8702900FC
:100870002000FFF733FE94F84610280000F048F9F6
:10088000002801D1002000E00120BDEC048B32BD26
:100890000000000038B52DED068B0400B0EE408A54
:1008A000F0EE608AB0EE419AF0EE619AB0EE42AAA4
:1008B000B0EE492AF0EE4A1AB0EE691AF0EE680A74
:1008C000B0EE480A04212000FFF7BBFC002801D14C
:1008D000002014E0644D201DFFF742FE2880082010
:1008E000A87029002000FFF7F9FD94F846102800B1
:1008F00000F00EF9002801D1002000E00120BDEC3D
:10090000068B32BD38B52DED068B0400B0EE408A63
:10091000F0EE608AB0EE419AF0EE619AB0EE42AA33
:100920000D00B0EE492AF0EE4A1A9FED4E1AF0EE95
:10093000680A9FED4C0A04212000FFF782FC002882
:1009400001D1002078E084F845502800C0B200288A
:100950000BD0022823D016D3042834D029D306285C
:1009600049D038D3072854D065E0B0EE4A1AF0EEEB
:10097000690AB0EE480A2000FFF726FE002801D1E0
:10098000002059E057E0F0EE4A0AB0EE680A200075
:10099000FFF750FE002801D100204DE04BE0B0EE03
:1009A000490A2000FFF77AFE002801D1002043E029
:1009B00041E0B0EE4A0A2000FFF7A2FE002801D174
:1009C000002039E037E02000FFF7CCFE002801D1FD
:1009D000002031E02FE0F0EE4A1AB0EE691AF0EE96
:1009E000490AB0EE480A2000FFF7E8FE002801D1CE
:1009F000002021E01FE0B0EE4A1AF0EE490AB0EE06
:100A0000680A2000FFF710FF002801D1002013E042
:100A100011E0B0EE4A2AF0EE691AB0EE491AF0EE93
:100A2000680AB0EE480A2000FFF734FF002801D121
:100A3000002001E0FFE70120BDEC068B32BD10B5C0
:100A40000A48007810F01F00B0F110040649084A67
:100A50002300DBB24820434302EB03004838FFF792
:100A600057FD10BD000000004C0200204003002094
:100A70000C00002010B504002000C0B2012805D0F1
:100A80002000C0B2022801D0002016E02000C0B231
:100A9000012806D16B4800F027FA00280CD000206E
:100AA0000BE02000C0B2022806D1674800F01CFA13
:100AB000002801D0002000E0012010BD012111FA22
:100AC00000F0401E01EE900AF8EEE11A30EE600AE6
:100AD00021EE800A71EE600A80EE200ABCEEC00AA8
:100AE00010EE100A704701EE100A70EEC00AB8EE60
:100AF000411A60EE810A012010FA01F1491E01EE4F
:100B0000101AB8EEC11AC0EE810A30EE800A7047A2
:100B100070B586B004000D002800C0B2012805D0D1
:100B20002800C0B2022801D0002048E02800C0B24E
:100B3000012802D14348060005E02800C0B202287F
:100B400001D141480600208800900020029000203A
:100B50000390A078049000208DF81400208880B2C3
:100B60004009042809D1394B221D6946300000F0A4
:100B7000EBF9002822D0002021E0208880B2400933
:100B800080B2092804D0208880B240090A280AD1FE
:100B90002E4B14F13C026946300000F0D5F90028D4
:100BA0000CD000200BE0294B14F1480269463000BC
:100BB00000F0CAF9002801D0002000E0012006B0B2
:100BC00070BD38B504000D00208880B240090428AB
:100BD0000AD114F120031E4A0021280000F047FA30
:100BE00000282CD000202BE0208880B24009182853
:100BF0000AD114F13E03164A0021280000F037FA0A
:100C000000281CD000201BE0208880B24009172853
:100C10000AD114F146030E4A0021280000F027FAF9
:100C200000280CD000200BE014F15003084A0021EA
:100C3000280000F01CFA002801D0002000E001206C
:100C400032BD0000F00200201803002060030020E5
:100C50004003002070B50400002C01D10120AEE05B
:100C600094F82000002802D1200000F059FC2068F0
:100C7000006850F001002168086000F02BFD0500BD
:100C800020684068C0070DD400F024FD401B0B28ED
:100C9000F6D3606A50F400306062052084F82000CA
:100CA00001208CE02068006830F0020021680860B4
:100CB00000F010FD06002068406880070DD500F0A8
:100CC00009FD801B0B28F6D3606A50F40030606287
:100CD000052084F82000012071E0207E012806D143
:100CE0002068006850F080002168086005E02068F6
:100CF000006830F0800021680860607E012806D11D
:100D00002068006850F040002168086005E0206815
:100D1000006830F0400021680860A07E012806D1FC
:100D20002068006850F020002168086005E0206815
:100D3000006830F0200021680860E07E012806D1BC
:100D40002068006830F010002168086005E0206825
:100D5000006850F0100021680860207F012806D14B
:100D60002068006850F008002168086005E02068ED
:100D7000006830F0080021680860607F012806D113
:100D80002068006850F004002168086005E02068D1
:100D9000006830F0040021680860A168E068014341
:100DA00020690143606901436068401E0143206877
:100DB000C16100206062012084F82000002070BD25
:100DC000F0B40200146892F820301800C0B2012874
:100DD00004D01800C0B2022840F07F80594DD5F8E9
:100DE000000250F00100C5F80002D5F8000230F40E
:100DF0007C50C5F80002D5F800024E6A50EA062081
:100E0000C5F8000201200E7D16F01F0610FA06F646
:100E1000D5F81C02B043C5F81C02C869002816D1D9
:100E2000D5F80C02B043C5F80C02486905EBC000C8
:100E3000CC684F68C7EA0444C0F84042486905EBF3
:100E4000C0008C680F68C7EA0444C0F84442C8690F
:100E5000012816D1D5F80C023043C5F80C024869B8
:100E600005EBC0000C684F68C7EA0444C0F8404274
:100E7000486905EBC0008C68CF68C7EA0444C0F835
:100E800044428869002805D1D5F80402B043C5F86A
:100E9000040204E0D5F804023043C5F804020869EE
:100EA000002805D1D5F81402B043C5F8140204E0B7
:100EB000D5F814023043C5F81402086A012804D199
:100EC000D5F81C023043C5F81C02D5F800024008D2
:100ED0004000C5F80002002004E0506A50F4802071
:100EE00050620120F0BC704738B5040094F820002F
:100EF000012821D1022084F82000206800684008E1
:100F000040002168086000F0E5FB050020684068AB
:100F1000C0070DD500F0DEFB401B0B28F6D3606A3E
:100F200050F400306062052084F82000012008E0C1
:100F300000206062002004E0606A50F400206062DB
:100F4000012032BD00640040F0B5040094F8205048
:100F50002068866888680028FFD02800C0B2012871
:100F600003D02800C0B202287BD116F0E05F72D017
:100F7000C6F301670120B8401860886800280BD1CB
:100F80000868D1F80CC05CEA405C20685FEA071E84
:100F90007044C0F880C10DE04868D1F808C05CEA30
:100FA000C00CC86850EA0C0C20685FEA071E704449
:100FB000C0F880C10869D4F800C05FEA071EF44495
:100FC000CCF88401087D01280ED120685FEA071C57
:100FD0006044D0F8840150F48070D4F800C05FEA17
:100FE000071EF444CCF88401D07992F806C05FEA79
:100FF0000C4C5CEA006C50795CEA002C107950EAE9
:101000000C0C20685FEA071E7044C0F88CC1D078D1
:1010100092F802C05FEA0C4C5CEA006C50785CEA23
:10102000002C107850EA0C0C20685FEA071E704410
:10103000C0F888C120685FEA071C6044D0F88001CE
:1010400050F00100D4F800C05FEA071EF444CCF869
:10105000800100200AE0606A50F400106062012004
:1010600004E0606A50F4802060620120F0BD70B43A
:10107000040094F820502800C0B2012804D02800B1
:10108000C0B2022840F0A48000290AD12068C068BC
:1010900010F0030F10D1606A50F40010606201205C
:1010A0009BE02068006910F0030F05D1606A50F4DE
:1010B00000106062012090E020680E013044D0F8FA
:1010C000B00110F0040090609068002807D12068FB
:1010D0000E013044D0F8B001400D106006E02068E9
:1010E0000E013044D0F8B001C008506020680E01F5
:1010F0003044D0F8B00110F00200D06020680E013A
:101100003044D0F8B40110F00F00082802D30820B2
:10111000106107E020680E013044D0F8B40110F0EF
:101120000F00106120680E013044D0F8B401C0F304
:101130000720906120680E013044D0F8B401000C03
:10114000506120680E013044D0F8B8011870206852
:101150000E013044D0F8B801000A587020680E0122
:101160003044D0F8B801000C987020680E0130446B
:10117000D0F8B801000ED87020680E013044D0F8C5
:10118000BC01187120680E013044D0F8BC01000A7F
:10119000587120680E013044D0F8BC01000C9871E1
:1011A00020680E013044D0F8BC01000ED87100292F
:1011B00006D12068C06850F020002668F06005E085
:1011C0002068006950F0200026683061002004E0AB
:1011D000606A50F480206062012070BC704710B4D7
:1011E000020092F820301800C0B2012803D0180085
:1011F000C0B2022806D110684069084314686061D3
:10120000002004E0506A50F480205062012010BC9D
:1012100070472DE9F84F05000024286846692868C2
:1012200047682868D0F808802868D0F80C902868AB
:10123000D0F810A02868D0F818B0F00755D55FEAAC
:10124000C87018D50120296888605FEA887003D5C6
:10125000280000F045FA0EE05FEA487002D554F429
:10126000006408E05FEA087002D554F4805402E09C
:10127000280000F036FA5FEAC85019D54FF48070A4
:10128000296888605FEA885003D5280000F02AFAB0
:101290000EE05FEA485002D554F4005408E05FEADB
:1012A000085002D554F4804402E0280000F01BFAF4
:1012B0005FEAC83019D55FF48030296888605FEA3A
:1012C000883003D5280000F00FFA0EE05FEA4830BE
:1012D00002D554F4004408E05FEA083002D554F423
:1012E000803402E0280000F000FA300707D55FEAFA
:1012F000C96004D554F4007410202968C8607007D0
:1013000008D55FEA097005D508202968C86028005B
:1013100000F0ECF9B00707D52868C06810F0030F9B
:1013200002D0280000F0E4F9700607D55FEACA6031
:1013300004D554F48064102029680861B00608D5EB
:101340005FEA0A7005D5082029680861280000F0C6
:10135000E1F9F00607D52868006910F0030F02D004
:10136000280000F0D8F9B00307D5F80605D51020FD
:1013700029684860280000F0CFF9F00307D5380746
:1013800005D5082029684860280000F0C6F9300417
:1013900047D5780742D5F00506D51BF00100C0B24D
:1013A000002801D054F00104B00504D55FEA8B7029
:1013B00001D554F00204700504D55FEA4B7001D5E5
:1013C00054F00404300529D51BF0700F26D01BF013
:1013D000700010280AD020280BD030280CD04028CC
:1013E0000DD050280ED060280FD011E054F0080422
:1013F0000EE054F010040BE054F0200408E054F028
:10140000400405E054F0800402E054F48074FFE7E7
:101410002868806930F07000296888610420296894
:101420004860002C05D0686A20436862280000F0FC
:1014300075F9BDE8F18F30B4002513E050F8042BA6
:10144000D30744BFA9F101039A18091F042942F8E0
:10145000045BFAD213468C0744BF15809B1CC90756
:1014600048BF1D7050F8041B0029E7D130BC7047FD
:1014700010B5804C80482060022060600020A06091
:101480000020E0605FF4302020615FF4E0006061E4
:1014900000202076002060760020A0760020E076F4
:1014A00000202077002060772000FFF7D3FB002882
:1014B00001D000F0B7F97149200000F0F1F80221E5
:1014C0002000FFF78CFE10BD10B56D4C6D482060FC
:1014D000022060600020A0600020E0605FF4302007
:1014E00020615FF4E00060610020207600206076DB
:1014F0000020A0760020E076002020770020607792
:101500002000FFF7A7FB002801D000F08BF95E490F
:10151000200000F0C5F802212000FFF760FE10BD9A
:1015200010B586B0040001A8142100F07DF92068F0
:101530005149884246D155480168491C01600068FC
:1015400001280BD1002000905148016851F0007132
:101550000160006810F0007000900098002000907A
:101560004C48016851F001010160006810F0010071
:10157000009000984FF4C05001900220029000208B
:101580000390032004900920059001A9424800F02F
:101590004FF900220021132000F000FB132000F07F
:1015A00012FB00220021142000F0F8FA142000F0B1
:1015B0000AFB00220021152000F0F0FA152000F0AF
:1015C00002FB54E020682F49884250D1002000904F
:1015D0002F49086850F080600860086810F080604B
:1015E0000090009829480268521C02600068012897
:1015F0000AD100200090086850F000700860086868
:1016000010F00070009000980020009021480168C0
:1016100051F002010160006810F002000090009893
:101620004FF44050019002200290002003900320CC
:1016300004900920059001A9184800F0F9F800224B
:1016400000213F2000F0AAFA3F2000F0BCFA00225F
:101650000021402000F0A2FA402000F0B4FA00225D
:101660000021412000F09AFA412000F0ACFA06B0C7
:1016700010BD0000F002002000640040A002002025
:101680001803002000680040C80200205C0300200E
:10169000403802403038024000000240000402405E
:1016A00038B504000D00002028600020686000208C
:1016B000A8600020E8600020286100206861002008
:1016C000A8610120E8610120286229002000FFF7BD
:1016D00077FB31BD01480068704700BF64030020FC
:1016E00070477047704770477047704770470000F9
:1016F00010B5040020680549884205D1210004483E
:10170000FFF75FFAFFF79BF910BD00BF00640040D0
:101710004C020020704770477047704770470000C8
:1017200010B500F06DFA00F020F800F083FAFFF732
:101730009FFEFFF7C9FE374C012201212000FEF772
:1017400019FF012000F0C4FA0021B1EE042AF0EEE6
:10175000081A9FED2E1ADFED2D0A9FED2D0A2000AD
:10176000FFF7D0F82C490870EBE780B592B006A8D7
:10177000302100F059F801A8142100F055F800209C
:1017800000902648016851F080510160006810F017
:10179000805000900098002000902148016851F48A
:1017A00080410160006810F48040009000980120A2
:1017B00006905FF48030079002200C905FF4800068
:1017C0000D9004200E90A8200F900220109004206D
:1017D000119006A800F090FA002801D000F022F83D
:1017E0000F20019002200290002003904FF4A0509F
:1017F00004904FF480500590052101A800F072FC80
:10180000002801D000F00EF813B000BD0000000069
:101810003333333F0C00002068030020403802407F
:101820000070004072B6FEE7002200F055BD0000D7
:10183000F8B50023002400250026102E80F0088132
:10184000012717FA06F213000A681A4014009C4296
:1018500040F0FC800A7912F00302012A04D00A79D0
:1018600012F00302022A1FD1D0F808C05FF0030E65
:101870003200D2B252001EFA02FE3CEA0E0CD1F83F
:101880000CE03200D2B252001EFA02FE5EEA0C0CEC
:10189000C0F808C04268B740BA434F68C7F30017A2
:1018A000B7403A43150045600A7912F00302032A53
:1018B00014D0C7685FF0030C3200D2B252001CFA99
:1018C00002FC37EA0C07D1F808C03200D2B252004D
:1018D0001CFA02FC5CEA07073D00C5600A7912F0B9
:1018E0000302022A1ED13200D20800EB8202176ADC
:1018F0005FF00F0C16F00702D2B292001CFA02FC45
:1019000037EA0C07D1F810C016F00702D2B29200E5
:101910001CFA02FC5CEA07073D003200D20800EB2B
:101920008202156207685FF0030C3200D2B25200E7
:101930001CFA02FC37EA0C0791F804C01CF0030CF7
:101940003200D2B252001CFA02FC5CEA07073D00EA
:1019500005604A6812F4403F78D000220092DFF818
:101960000C21176857F480471760126812F4804200
:101970000092009ADFF8F8C0320092085CF82270FA
:101980005FF00F0E16F00302D2B292001EFA02FEB2
:1019900037EA0E07374A904201D1002523E0364A44
:1019A000904201D101251EE0344A904201D1022526
:1019B00019E0334A904201D1032514E0314A9042A4
:1019C00001D104250FE0304A904201D105250AE0FB
:1019D0002E4A904201D1062505E02D4A904201D1C0
:1019E000072500E00825EDB216F00302D2B29200FE
:1019F00095402F43320092084CF82270254D2A68FA
:101A0000A243D1F804C05FEACC2C00D522432A605F
:101A1000214F3D68A543D1F804C05FEA8C2C00D566
:101A200025433D601D4F3A68A243D1F804C05FEAE8
:101A30008C3C00D522433A60194F3D68A543D1F84C
:101A400004C05FEACC3C00D525433D60761CF4E63B
:101A5000F1BD1300DBB2002B03D00B009BB28361FE
:101A600003E00B009BB21B048361704744380240C3
:101A70000838014000000240000402400008024013
:101A8000000C024000100240001402400018024006
:101A9000001C0240083C01400C3C0140043C014059
:101AA000003C014010B410F00703DFF83441226815
:101AB0004FF6FF010A40DFF82C1151EA03210A43D7
:101AC000226010BC7047DFF818010068C0F30220E4
:101AD00070470000010049B200290AD4012210F029
:101AE0001F018A40DFF8001103005BB25B0941F877
:101AF0002320704710B4020052B2002A05D40A0114
:101B00003A4B040064B21A5508E00A01384B04004D
:101B100064B214F00F04234403F8042C10BC704783
:101B200070B4030013F00704D4F10700052801D3B3
:101B3000042001E0D4F10700251D072D01D2002566
:101B400000E0E51E012616FA00F0401E0140A94003
:101B500016FA05F56D1E2A401143080070BC704747
:101B600010B50400601EB0F1807F01D301200EE0AB
:101B7000601E204908600F215FF0FF30FFF7BAFFB9
:101B800000201D49086007201C490860002010BD86
:101B900010B504002000FFF785FF10BD2DE9F041CE
:101BA00004000D0016000027FFF78DFF804632006D
:101BB00029004046FFF7B4FF0100200040B2FFF7C4
:101BC00099FFBDE8F08110B50400200040B2FFF796
:101BD00081FF10BD10B504002000FFF7C1FF10BD4C
:101BE0000CED00E00000FA0500E100E000E400E098
:101BF00018ED00E014E000E018E000E010E000E084
:101C000080B50B48016851F400710160016851F41E
:101C100080610160016851F4807101600320FFF769
:101C2000B7FF0F2000F072FB00F096FB002002BD12
:101C3000003C024010B586B001A81421FFF7F4FD66
:101C4000002000902048016851F0200101600168E7
:101C500011F020010091009900210091016851F0DC
:101C600080010160016811F080010091009900215C
:101C70000091016851F002010160016811F0020158
:101C80000091009900210091016851F0010101606B
:101C9000006810F00100009000980C4C00224FF4F6
:101CA00000712000FFF7D5FE4FF400700190012075
:101CB0000290002003900020049001A92000FFF76B
:101CC000B7FD06B010BD00BF30380240001402401E
:101CD00070B50400FFF7FEFC0500260016F1010FA9
:101CE00002D0044800783618FFF7F4FC401BB042DD
:101CF000FAD370BD080000202DE9F8430400002C41
:101D000001D10120D8E12078C0075FD5DFF8AC030E
:101D1000016811F00C01042909D0006810F00C00D2
:101D200008280ED1DFF898030068400209D5DFF8D3
:101D300094030068800349D56068002846D10120DB
:101D4000BAE16068B0F5803F06D1DFF8780301683A
:101D500051F48031016018E06068B0F5A02F0AD11D
:101D6000DFF86003016851F480210160016851F4DB
:101D70008031016009E0DFF84C03016831F4803103
:101D80000160016831F480210160606800280ED094
:101D9000FFF7A0FC0500DFF82C030068800315D4D2
:101DA000FFF798FC401B6528F5D3032084E1FFF77B
:101DB00091FC0500DFF80C030068800306D5FFF7EF
:101DC00089FC401B6528F5D3032075E12078800746
:101DD0004CD5DFF8E802016811F00C0F08D000685C
:101DE00010F00C00082814D1B5480068400210D447
:101DF000B4480168890704D5E168012901D00120B0
:101E00005AE1016831F0F801226951EAC20101602A
:101E10002CE0E068002818D00120AB490860FFF7EB
:101E200059FC0500A7480168890706D4FFF752FC52
:101E3000401B0328F6D303203EE1016831F0F8018E
:101E4000226951EAC201016010E000209E49086049
:101E5000FFF740FC05009B480068800706D5FFF7A8
:101E600039FC401B0328F6D3032025E12078000726
:101E700024D56069002810D0012094490860FFF73C
:101E800029FC050092480068800717D4FFF722FC60
:101E9000401B0328F6D303200EE100208B49086085
:101EA000FFF718FC05008A480068800706D5FFF791
:101EB00011FC401B0328F6D30320FDE020784007E7
:101EC0007CD50027DFF80C82D8F80000C0000FD4C2
:101ED00000200090D8F8000050F08050C8F80000B2
:101EE000D8F8000010F08050009000980120070002
:101EF000DFF8E491D9F80000C00513D4D9F8000048
:101F000050F48070C9F80000FFF7E4FB0500D9F831
:101F10000000C00506D4FFF7DDFB401B0328F6D305
:101F20000320C9E0A068012805D16C48016851F080
:101F30000101016015E0A068052809D16748016822
:101F400051F004010160016851F00101016008E0F5
:101F500062480168490849000160016831F00401E4
:101F60000160A06800280FD0FFF7B4FB05005B48B4
:101F70000068800718D4FFF7ADFB401B41F28931A0
:101F80008842F4D3032097E0FFF7A4FB05005348F1
:101F90000068800708D5FFF79DFB401B41F289319F
:101FA0008842F4D3032087E03800C0B2012805D16D
:101FB000D8F8000030F08050C8F80000A069002870
:101FC00079D03E48006810F00C00082847D0A0697E
:101FD000022833D1424F00203860FFF77BFB804658
:101FE000DFF8E090D9F80000800107D5FFF772FB19
:101FF000B0EB08000328F3D303205DE0E169206A19
:102000000143606A51EA8011A06A4008401E51EA0B
:102010000041E06A51EA006129480160012038600E
:10202000FFF758FB0500D9F80000800143D4FFF703
:1020300051FB401B0328F6D303203DE00020284934
:102040000860FFF747FB05001E480068800132D595
:10205000FFF740FB401B0328F6D303202CE0A069C8
:10206000012801D1012027E0154800680600A06979
:1020700001281ED016F48000E169884219D116F0BB
:102080003F00216A884214D147F6C0703040616A2F
:10209000B0EB811F0DD116F44030A16A4908491EEA
:1020A000B0EB014F05D116F07060E16AB0EB016F43
:1020B00001D0012000E00020BDE8F2830838024092
:1020C000043802400038024000004742800E474278
:1020D00074380240403802400070004070380240BE
:1020E000600047422DE9F04104000D00002C01D1B1
:1020F000012095E04B4F386810F00700A84207D246
:102100003D70386810F00700A84201D0012087E038
:102110002078800716D52078400704D5424801680A
:1021200051F4E05101602078000704D53E48016871
:1021300051F4604101603C490A6832F0F002A06845
:1021400002430A602078C00738D56068012805D1AD
:1021500036480068800313D4012061E060680228DB
:1021600002D06068032805D130480068800107D498
:10217000012055E02D480068800701D401204FE080
:10218000DFF8A480D8F8001089088900606801434E
:10219000C8F80010FFF79EFA0600D8F8000010F00B
:1021A0000C006168B0EB810F08D0FFF793FA801B39
:1021B00041F289318842F0D3032031E0386810F0D1
:1021C0000700854207D23D70386810F00700A8422A
:1021D00001D0012024E02078400706D512490A6882
:1021E00032F4E052E06802430A602078000707D525
:1021F0000D48016831F46041226951EAC201016071
:1022000000F01CF80A49084A1268C2F30312895CFC
:10221000C840084908600848006800F077F80020C6
:10222000BDE8F081003C024008380240003802401E
:102230002427000804000020000000202DE9F041C0
:1022400000240025002600271F48006810F00C001D
:10225000002804D0042804D0082804D031E01B480A
:1022600030E01B482EE0DFF86C80D8F8000010F05A
:102270003F000400D8F8000040020CD5D8F8000058
:10228000C0F388101249A1FB00012200002300F0D6
:1022900083F805000BE0D8F80000C0F388100B4964
:1022A000A1FB00012200002300F076F80500D8F819
:1022B0000000C0F30140401C40000600B5FBF6F0F2
:1022C00000E00248BDE8F081083802400024F40034
:1022D00000127A000438024000B500BF1300964691
:1022E0009446103928BFA0E80C50FAD85FEA417C28
:1022F00028BF0CC048BF40F8042BC90728BF20F8EE
:10230000022B48BF00F8012B00BD000010B50400EF
:102310004FF47A700D490978B0FBF1F00C49096867
:10232000B1FBF0F0FFF756FC002801D001200CE0D3
:10233000102C09D2002221005FF0FF30FFF72EFCA5
:1023400004480460002000E0012010BD08000020C7
:10235000040000200000002081B0002000900C4804
:10236000016851F480410160006810F480400090E1
:102370000098002000900748016851F080510160EA
:10238000006810F080500090009801B0704700BFC6
:102390004438024040380240BBBBE1B1B2F5803F57
:1023A00080F07E80022A1ED98C46B1FBF2F102FB3E
:1023B00011C31B0443EA1043B3FBF2FC02FB1C33C2
:1023C00080B240EA0343B3FBF2F002FB103240EA72
:1023D0000C4000237047022A05D98446B0FBF2F076
:1023E00002FB10C270474AB105D100F00102490852
:1023F0005FEA3000704700220023704700F0E4B825
:102400000B000200002100207047904271EB030C8A
:10241000F6D3B3F5803F2FD2F0B5B3FA83F7B1FA14
:1024200081F4A7F10F0E3D1B5340CEF1200602FAB6
:102430000EF2F3415340B5F10F0746D80F3C2C4440
:102440004140C4F12006A040F1414140B1FBF3F608
:1024500003FB1611A2FB0645001BA94102D2761E02
:102460008018594180EA010221FA0EF362FA0EF255
:1024700000215A403046F0BD30B4B1FBF3FC03FB01
:102480001C11A2FB0C45001BA94103D2ACF1010CAD
:102490008018594130BC02460B4660460021704707
:1024A000B2F1807F65D3F0B5B2FA82F7B1FA81F468
:1024B000C7F10F063D1B22FA06F307F1110EF24198
:1024C00020355A40B5F10F07B8D94140C4F1200674
:1024D000A040F1414140B1FBF3FC03FB1C11A2FB06
:1024E0000C45001BA94103D2BCF1010C80185941D5
:1024F0000F2F12D30F3FC90341EA5041B1FBF3F64E
:1025000003FB1611A2FB0645D4EBC030A94102D251
:10251000761E8018594146EACC3C07B34140C7F1CA
:102520002006B840F1414140B1FBF3F603FB161120
:10253000A2FB0645001BA94102D2761E8018594114
:1025400080EA010221FA0EF3C7F1200462FA0EF2CA
:102550000CFA07F05A402CFA04F13043F0BD80EA3F
:10256000010221FA0EF3002162FA0EF260465A408F
:10257000F0BD8C46B1FBF2F102FB11C31B0243EA32
:102580001063B3FBF2FC02FB1C331B024CEA00207D
:1025900043EA1063B3FBF2FC02FB1C331B024CEA60
:1025A000002043EA1063B3FBF2FC02FB1C331B0266
:1025B0004CEA002043EA1063B3FBF2FC02FB1C323E
:1025C0004CEA00200023704770470000FEE7FEE75A
:1025D000FEE7FEE7FEE770477047704780B500F002
:1025E00023F801BD80B50E48FEF713FE01BD80B58E
:1025F0000B48FEF70EFE01BD80B50948FEF709FE47
:1026000001BD80B50748FEF704FE01BD80B5054851
:10261000FEF7FFFD01BD80B50248FEF7FAFD01BDE2
:10262000F00200201803002003480168034A1278D2
:1026300089180160704700BF640300200800002073
:1026400030B450F8041B79B1026843680244083082
:10265000DC0744BFA9F10104E31852F8045B43F816
:10266000045B091FF9D1ECE730BC704710B507498E
:1026700079441831064C7C44163404E00A68081D7D
:10268000114488470146A142F8D110BD2C0000003A
:102690004C0000004EF68851CEF20001086840F46C
:1026A00070000860BFF34F8FBFF36F8F4FF0007063
:1026B000E1EE100A704700007FEDFFFF60030000AD
:1026C0000C0000200000000079FFFFFF0C0000005C
:1026D00090000000000000200000000000F00DF855
:1026E000002801D0FFF7C2FFAFF300800020AFF356
:1026F0000080FFF715F800F002F80120704700F0A5
:1027000001B800000746384600F002F8FBE7000079
:1027100080B5AFF30080024A11001820ABBEFBE782
:102720002600020000000000000000000102030477
:102730000607080901488047014800474527000867
:10274000552700080248016851F470010160704784
:1027500088ED00E0AFF30080FFF79CFFFFF7BEFFBE
:10276000100000000024F40001000000FFF7FEBF8D
:10277000FFF7FEBFFFF7FEBFFFF7FEBFFFF7FEBF8D
:10278000FFF7FEBFFFF7FEBFFFF7FEBFFFF7FEBF7D
:10279000FFF7FEBFFFF7FEBFFFF7FEBFFFF7FEBF6D
:1027A000FFF7FEBFFFF7FEBFFFF7FEBFFFF7FEBF5D
:1027B000FFF7FEBFFFF7FEBFFFF7FEBFFFF7FEBF4D
:1027C000FFF7FEBFFFF7FEBFFFF7FEBFFFF7FEBF3D
:1027D000FFF7FEBFFFF7FEBFFFF7FEBFFFF7FEBF2D
:1027E000FFF7FEBFFFF7FEBFFFF7FEBFFFF7FEBF1D
:1027F000FFF7FEBFFFF7FEBFFFF7FEBFFFF7FEBF0D
:10280000FFF7FEBFFFF7FEBFFFF7FEBFFFF7FEBFFC
:10281000FFF7FEBFFFF7FEBFFFF7FEBFFFF7FEBFEC
:10282000FFF7FEBFFFF7FEBFFFF7FEBFFFF7FEBFDC
:10283000FFF7FEBFFFF7FEBFFFF7FEBFFFF7FEBFCC
:10284000FFF7FEBFFFF7FEBFFFF7FEBFFFF7FEBFBC
:10285000FFF7FEBFFFF7FEBFFFF7FEBFFFF7FEBFAC
:10286000FFF7FEBFFFF7FEBFFFF7FEBFFFF7FEBF9C
:10287000FFF7FEBFFFF7FEBFFFF7FEBFFFF7FEBF8C
:10288000FFF7FEBFFFF7FEBFFFF7FEBFFFF7FEBF7C
:08289000FFF7FEBFFFF7FEBFDA
:040000050800275573
:00000001FF
